:020000040800F2
:1000000068090020250D0008AD030008AF030008B3
:10001000B3030008B7030008BB030008000000009A
:10002000000000000000000000000000BF03000806
:10003000C103000800000000C3030008C503000856
:100040003F0D00083F0D00083F0D00083F0D000860
:100050003F0D00083F0D00083F0D00083F0D000850
:100060003F0D00083F0D00083F0D00083F0D000840
:100070003F0D00083F0D00083F0D00083F0D000830
:100080003F0D00083F0D00083F0D00083F0D000820
:100090003F0D00083F0D00083F0D00083F0D000810
:1000A0003F0D00083F0D00083F0D00083F0D000800
:1000B0003F0D00083F0D00083F0D00083F0D0008F0
:1000C0003F0D00083F0D00083F0D00083F0D0008E0
:1000D0003F0D0008FF290008C70300083F0D000876
:1000E0003F0D00083F0D00083F0D00083F0D0008C0
:1000F0003F0D00083F0D00083F0D00083F0D0008B0
:100100003F0D00083F0D00083F0D00083F0D00089F
:100110003F0D00083F0D00083F0D00080F040008C8
:100120003F0D00083F0D00083F0D00083F0D00087F
:100130003F0D00083F0D00083F0D00083F0D00086F
:100140003F0D00083F0D00083F0D00083F0D00085F
:100150003F0D00083F0D00083F0D00083F0D00084F
:100160003F0D00083F0D00083F0D00083F0D00083F
:100170003F0D00083F0D00083F0D00083F0D00082F
:100180003F0D00083F0D00083F0D00083F0D00081F
:100190003F0D00083F0D00083F0D00083F0D00080F
:1001A0003F0D00083F0D00083F0D000800F002F869
:1001B00000F040F80AA090E8000C82448344AAF1C1
:1001C0000107DA4501D100F035F8AFF2090EBAE8BF
:1001D0000F0013F0010F18BFFB1A43F0010318477B
:1001E000C02C0000E02C0000103A24BF78C878C171
:1001F000FAD8520724BF30C830C144BF04680C602D
:10020000704700000023002400250026103A28BF74
:1002100078C1FBD8520728BF30C148BF0B60704778
:100220001FB502F038FE9DE8030002F065FD1FBD1A
:1002300010B510BD02F0BBFD1146FFF7F1FF00F055
:1002400035F802F0D9FD03B4FFF7F2FF03BC02F06A
:1002500071FB00007FB505460C460121202001F00E
:100260005FF90295ADF804400020ADF80600ADF846
:100270000C0001A9414801F00CFB012211463F4846
:1002800001F0A8FF00213D4801F08CFB37208DF8DC
:10029000000001208DF8010002208DF802000120ED
:1002A0008DF80300684600F062FD7FBDADF5067D68
:1002B00000BF4FF4007106A802F0D6FC142230A152
:1002C000684602F07DFC102002F0DFFB3149086037
:1002D0000A213048006800F0E7F9BA2002F0A8FAD5
:1002E0004FF4E13000F0C6FA1321684600F02DFC0F
:1002F00040F247314FF4FA60FFF7ACFF00F0CEFC5C
:100300000120254908602549C1F8B0022249083179
:100310000860091D0860091D086021490860091D61
:1003200008602049C1F89C0226E005AA06A91948E0
:10033000006800F02AFA059881B206A800F005FCD2
:100340004FF4007106A802F08FFC002005904FF4D6
:100350007A7002F0CFFA1448007828B100201249D0
:1003600008700D49086007E001200F4908700A492C
:1003700008600A49C1F8B002D7E700000014004045
:10038000B4AEBFDAB3F5CABCBBAFB3C9B9A6A3A1BB
:100390000D0A000000000020AC8242420080424270
:1003A000800243420000424204000020704700BF28
:1003B000FEE700BFFEE700BFFEE700BFFEE77047B5
:1003C00070477047704710B500BF00211F4801F00B
:1003D000E9FA00211D4801F0A5FA01211B4801F0AE
:1003E000E1FA40F225511A4802F0D8F970B1002024
:1003F00018490860164802F00FF91749174A1268A1
:10040000885416480068401C1449086010BD10B597
:1004100001210E4801F0F5FE012816D101210B48FB
:1004200001F000FF0D480C4902680D48006800F01B
:1004300067F94FF40071084802F0F4FB0020074907
:1004400008600021014801F0ADFA10BD0014004021
:1004500000440040B08242424000002008000020DA
:10046000000000200CB50020019000908348006837
:1004700040F480308149086000BF8048006800F483
:10048000003000900198401C0190009818B9019824
:10049000B0F5A04FF1D17948006800F4003010B1F8
:1004A0000120009001E0002000900098012860D118
:1004B00072484030006840F0805070494031086018
:1004C0006F48006840F440406D4908606B48083050
:1004D00000686A49083108600846006840F4004036
:1004E00008600846006840F4A05008606548091F8D
:1004F0000860081F006840F08070091F086000BF96
:100500005E48006800F000700028F9D05C48006880
:1005100040F480305A49086000BF5948406800F4F0
:1005200080300028F9D05648006840F40030544923
:10053000086000BF5248406800F400300028F9D03D
:1005400040F20570504908604C480830006820F0BF
:1005500003004A49083108600846006840F002007C
:10056000086000BF45480830006800F00C0008280B
:10057000F8D10CBD10B54548006840F470004349FF
:1005800008603E48006840F001003C4908600020D7
:100590003A4908310860394800683D490840374900
:1005A00008603C48091D0860081F006820F480208E
:1005B000091F0860002031490C310860FFF752FF25
:1005C0004FF0006031498039086010BD70B50020DF
:1005D0000022022300240221284D08352D6805F051
:1005E0000C0020B1042806D0082834D107E02A4D99
:1005F0002A4E356033E02A4D284E35602FE01F4DDE
:100600002D1D2D68C5F380541C4D2D1D2D6805F042
:100610003F0154B1224DB5FBF1F5184E361D366839
:10062000C6F3881605FB06F209E01B4DB5FBF1F594
:10063000124E361D3668C6F3881605FB06F20F4DBE
:100640002D1D2D68C5F301456D1C6B00B2FBF3F544
:10065000124E356003E0104D104E356000BF00BFF4
:10066000064D08352D68C5F303150E4E705D0B4D14
:100670002D68C540094E356070BD0000003802404D
:1006800000700040085A4007003C024088ED00E03E
:10069000FFFFF6FE103000240024F40010000020BC
:1006A00000127A00140000202DE9F04106460F46A2
:1006B000102002F0EAF9054615B90120BDE8F081E5
:1006C0003560102002F0E1F9044624B9284602F012
:1006D0000BFA0120F2E77460B78105203072002028
:1006E000708128606C60A860E86025606060A06030
:1006F000E060062030720020E0E70146488970473C
:100700002DE9F041044688461646207A052801D195
:10071000BDE8F0811EB9062020720020F8E7052010
:1007200020726089A189884203D1062020720420AA
:10073000EEE7304602F0A9F907461FB906202072FD
:100740000120E5E732464146384602F0F4F9102030
:1007500002F09BF9054635B9384602F0C5F9062086
:1007600020720120D4E72168486821682960686008
:1007700021684D600560EF60AE6000BF6089401C7D
:100780006081062020720020C2E72DE9F041044676
:100790000E461746207A052801D1BDE8F0810520D4
:1007A00020722046FFF7A9FF18B90620207200200A
:1007B000F3E74FF0000860680068D0F80880C7F8D9
:1007C0000080606800684246C168304602F0B3F9B4
:1007D0006068056828686168086060682968486022
:1007E0000020A860E86802F07FF90020E860284651
:1007F00002F07AF9002500BF6089401E6081062062
:1008000020720020C9E770B505462C68287A0528B3
:1008100000D170BD206802F067F9002020600CE074
:100820006668E06802F060F90020E060A0602046A1
:1008300002F05AF90024344600BF60680028EFD166
:10084000606802F051F900206060E06802F04CF945
:100850000020E060A060204602F046F9002400205D
:1008600028726881A881284602F03EF90025002000
:10087000CFE7000010B588B004460121480400F01D
:100880004FFE0121082000F004FE07220521FB484D
:1008900000F0E9FB07220621F84800F0E4FB6020A5
:1008A000069002208DF81C0003208DF81D0000200A
:1008B0008DF81E0001208DF81F0006A9EF4800F0FA
:1008C00047FB02940020ADF80C00ADF80E00ADF827
:1008D0001000ADF814000C20ADF8120002A9E84891
:1008E00001F0E3FD0121E64801F067FE012240F23C
:1008F0002551E34801F017FF26208DF8040002205F
:100900008DF805008DF8060001208DF8070001A87C
:1009100000F02DFA4021DA4801F037FF08B010BD91
:1009200010B588B004460121080500F0F9FD012149
:100930000C2000F0AEFD08220C21D24800F093FB01
:1009400008220221CD4800F08EFB4FF48050069023
:1009500002208DF81C0003208DF81D0000208DF86A
:100960001E0001208DF81F0006A9C64800F0F0FA0D
:100970000420069002208DF81C0003208DF81D0035
:1009800000208DF81E0001208DF81F0006A9BB482D
:1009900000F0DEFA02940020ADF80C00ADF80E0075
:1009A000ADF81000ADF814000C20ADF8120002A94B
:1009B000B54801F07AFD0121B34801F0FEFD0122A6
:1009C00040F22551B04801F0AEFE35208DF804000C
:1009D00003208DF805008DF8060001208DF8070032
:1009E00001A800F0C4F94021A74801F0CEFE08B0EC
:1009F00010BD10B588B004460121880700F090FDB5
:100A00000121202000F045FD082206219F4800F02A
:100A10002AFB082207219D4800F025FBC0200690F4
:100A200002208DF81C0003208DF81D0000208DF899
:100A30001E0001208DF81F0006A9944800F088FAD6
:100A400002940020ADF80C00ADF80E00ADF81000D7
:100A5000ADF814000C20ADF8120002A98C4801F08A
:100A600024FD01218A4801F0A8FD012240F2255110
:100A7000874801F058FE52208DF8040003208DF8BD
:100A800005008DF8060001208DF8070001A800F090
:100A90006EF940217E4801F078FE08B010BD10B517
:100AA00088B004460121C80700F03AFD012110205A
:100AB00000F0EFFC08220021764800F0D4FA08226A
:100AC0000121744800F0CFFA0320069002208DF82F
:100AD0001C0003208DF81D0000208DF81E00012051
:100AE0008DF81F0006A96B4800F032FA029400202E
:100AF000ADF80C00ADF80E00ADF81000ADF8140024
:100B00000C20ADF8120002A9634801F0CEFC0121CF
:100B1000614801F052FD012240F225515E4801F08A
:100B200002FE53208DF8040003208DF805008DF897
:100B3000060001208DF8070001A800F018F94021F7
:100B4000554801F022FE08B010BD70B505460E46AE
:100B50004FF480714A4801F018FE2021484801F006
:100B600014FE4021464801F003FE4021444801F0B4
:100B70000CFE00240CE0295D414801F049FD00BF56
:100B800040213F4801F0F4FD0028F9D0601C84B2F8
:100B9000B442F0DB70BD70B505460E464FF480716F
:100BA000394801F0F2FD2021374801F0EEFD4021E7
:100BB000354801F0DDFD4021334801F0E6FD002419
:100BC0000CE0295D304801F023FD00BF40212E4894
:100BD00001F0CEFD0028F9D0601C84B2B442F0DBF5
:100BE00070BD70B505460E464FF48071284801F07F
:100BF000CCFD2021264801F0C8FD4021244801F009
:100C0000B7FD4021224801F0C0FD00240CE0295D21
:100C10001F4801F0FDFC00BF40211D4801F0A8FD68
:100C20000028F9D0601C84B2B442F0DB70BD70B50E
:100C300005460E464FF48071174801F0A6FD2021AD
:100C4000154801F0A2FD4021134801F091FD40211B
:100C5000114801F09AFD00240CE0295D0E4801F0D6
:100C6000D7FC00BF40210C4801F082FD0028F9D0DC
:100C7000601C84B2B442F0DB70BD0000000C024086
:100C800000440040000802400050004000140240B0
:100C90000078004000100240007C00401CB501219B
:100CA000702000F0F6FB4FF47840009001208DF8A2
:100CB000040000208DF8060003208DF805000120B7
:100CC0008DF807006946144800F042F903200090AF
:100CD00001208DF8040000208DF8060003208DF817
:100CE000050001208DF8070069460C4800F030F936
:100CF0008020009001208DF8040000208DF806006F
:100D000003208DF8050001208DF80700694604488E
:100D100000F01EF91CBD0000001402400018024043
:100D2000001002400948804709480047FEE7FEE7F7
:100D3000FEE7FEE7FEE7FEE7FEE7FEE7FEE7FEE78B
:100D400004480549054A064B704700007505000830
:100D5000AD01000868030020680900206805002034
:100D60006805002032490143324A1160704770B56E
:100D7000002100230F22C4781CB32E4C246804F4F5
:100D8000E064C4F5E064C4F30721C1F10404E3B2F4
:100D90000A4144789C40E1B28478144021430C0716
:100DA000210E254C05786155047804F01F050124B7
:100DB000AC4005786D11AD0005F1E025C5F80041A6
:100DC00009E0047804F01F050124AC401B4D0678AF
:100DD000761145F8264070BD194A0A400243154B6A
:100DE0001B1F1A60704739B1124A121D1268024364
:100DF000104B1B1D1A6006E00E4A121D126882433A
:100E00000C4B1B1D1A607047042808D14FF0E021DD
:100E1000096941F004014FF0E022116107E04FF051
:100E2000E021096921F004014FF0E02211617047CF
:100E30000000FA050CED00E000E400E080E100E0D5
:100E400080FFFF1F10B504469848844208D1012155
:100E5000084600F087FB0021012000F083FB76E0CC
:100E60009348844208D10121022000F07BFB00213D
:100E7000022000F077FB6AE08E48844208D101210D
:100E8000042000F06FFB0021042000F06BFB5EE00B
:100E90008948844208D10121082000F063FB002129
:100EA000082000F05FFB52E08448844208D1012111
:100EB000102000F057FB0021102000F053FB46E00B
:100EC0007F48844208D10121202000F04BFB002103
:100ED000202000F047FB3AE07A48844208D1012103
:100EE000402000F03FFB0021402000F03BFB2EE0C3
:100EF0007548844208D10121802000F033FB002195
:100F0000802000F02FFB22E07048844208D10121AC
:100F1000801500F027FB0021A01500F023FB16E050
:100F20006B48844208D10121401500F01BFB0021D1
:100F3000601500F017FB0AE06648844207D10121E2
:100F4000001500F00FFB0021201500F00BFB10BD79
:100F5000F0B50A4600210023002400BF3DE0012532
:100F600005FA01F3156805EA03049C4234D10568CB
:100F70004F000326BE40B543056015794E00B540CD
:100F80000668354305601579012D02D01579022DCB
:100F900016D185684F000326BE40B543856055795C
:100FA0004E00B540866835438560456801268E4011
:100FB000B5434560456896798E40B6B23543456085
:100FC000C5684F000326BE40B543C560D5794E00C5
:100FD000B540C6683543C560491C1029BFD3F0BD74
:100FE0004FF6FF7101600021017141718171C17182
:100FF000704708B54FF480320092009A0A4300927D
:10100000009AC261C161009AC261C2690092C2695C
:10101000009208BD0246002013690B400BB101206D
:1010200000E0002070470146086980B27047024620
:10103000002053690B400BB1012000E000207047F5
:101040000146486980B27047018370474183704709
:101050000AB1018300E041837047416170474269F2
:101060004A4042617047F0B5002300244D07ED0E61
:1010700002FA05F3CE1000F1200555F826504E0770
:10108000F70E0F26BE40B543CF1000F1200646F8FC
:101090002750CE1000F1200555F8265045EA0304EC
:1010A000CE1000F1200545F82640F0BD00000240BA
:1010B0000004024000080240000C02400010024000
:1010C0000014024000180240001C024000200240B0
:1010D0000024024000280240F648006840F0010069
:1010E000F44908600020F34908310860F1480068BD
:1010F000F1490840EF490860F048091D0860F048D0
:10110000EC4984310860ED481038091D0860E94851
:10111000006820F48020E74908600020E5490C3190
:101120000860E4498C31086070470021E14A921C54
:10113000117011460870704710B501460022002357
:1011400000204A11012A02D1DA4C236808E0022A61
:1011500003D1D84C7034236802E0D64C7434236831
:1011600001F01F02012494401C400CB1012000E05A
:10117000002010BD38B5002000900024002500BFDD
:101180003120FFF7D9FF05460098401C00900098D9
:10119000B0F5A04F01D0002DF2D03120FFF7CCFFE9
:1011A00008B1012400E00024204638BD014600209B
:1011B000C04A106820F0F80040EAC1001060704793
:1011C000C049086070470021BA4A7032117011702E
:1011D000012802D004280AD104E00121B54A703266
:1011E000117005E00521B34A7032117000E000BFB4
:1011F00000BF7047B4490860704770B5049C41EA6D
:1012000082150126C6EB530645EA0645054345EA25
:101210000465A84E361D356070BDAA490866704742
:1012200010B5830143EA016343EA0273A14C84349D
:10123000236010BDA3498866704710B5830143EA57
:10124000016343EA02739B4C8834236010BD9D49BF
:10125000086770479B49C864704702460020954B59
:101260000833186820F0EC6042EA01031843914B00
:10127000083318607047024600208E4B0833186808
:1012800020F0784042EA010318438A4B0833186083
:10129000704701460020874A0832106820F003009A
:1012A00008431060704783480830006800F00C0065
:1012B0007047014600207F4A0832106820F0F00095
:1012C000084310607047014600207A4A08321068CF
:1012D00020F4E05008431060704701460020754A32
:1012E0000832106820F4604040EAC1001060704786
:1012F000F0B50021002200240225002602236D4FB4
:1013000008373F6807F00C0121B1042905D00829EE
:1013100037D105E06D4F076036E06D4F076033E071
:10132000644F3F1D3F68C7F38056624F3F1D3F68C3
:1013300007F03F036EB1664FB7FBF3F7DFF874C1F8
:101340000CF1040CDCF800C0CCF3881C07FB0CF497
:101350000CE05E4FB7FBF3F7DFF858C10CF1040C5B
:10136000DCF800C0CCF3881C07FB0CF4514F3F1D88
:101370003F68C7F301477F1C7D00B4FBF5F70760AA
:1013800002E0524F076000BF00BF4A4F08373F6876
:1013900007F0F00109094F4F7A5C0768D7404760B2
:1013A000444F08373F6807F4E051890A494F7A5C97
:1013B0004768D74087603F4F08373F6807F4604170
:1013C000490B444F7A5C4768D740C760F0BD0021A5
:1013D00000F44072B2F5407F0AD1364A08321168F3
:1013E00021F4F8113C4A02401143324A083211609C
:1013F000304A70321268C0F30B031A432D4B70331E
:101400001A60704730494439086070472E494039A6
:101410000860704731490860704701460020254A3E
:101420008C32106820F01F004A1E1043214A8C3273
:1014300010607047014600201E4A8C32106820F46C
:10144000F8504A1E40EA02201A4A8C321060704757
:1014500001460020174A8C32106820F440100843DF
:101460001060704701460020124A8C32106820F448
:101470004000084310607047014600200D4A8C323E
:10148000106820F440300843106070471449086029
:10149000704739B1074A303212680243054B303386
:1014A0001A6006E0034A303212688243014B30333F
:1014B0001A60704700380240FFFFF6EA103000243F
:1014C0000030002000004742800E47420024F40014
:1014D00000127A0024000020FFFCFF0F5C0147424D
:1014E000E011474229B1934A12680243914B1A60B6
:1014F00004E0904A126882438E4B1A60704739B1FB
:101500008C4A121D126802438A4B1B1D1A6006E0AA
:10151000884A121D12688243864B1B1D1A60704751
:1015200039B1844A0C3212680243824B0C331A6080
:1015300006E0804A0C32126882437E4B0C331A60FC
:10154000704739B17B4A103212680243794B10332D
:101550001A6006E0774A103212688243754B1033E6
:101560001A60704739B1734A243A12680243714BCA
:10157000243B1A6006E06F4A243A126882436D4B9E
:10158000243B1A60704739B16A4A203A1268024314
:10159000684B203B1A6006E0664A203A1268824394
:1015A000644B203B1A60704739B1624A1C3A12689A
:1015B0000243604B1C3B1A6006E05E4A1C3A12680C
:1015C00082435C4B1C3B1A60704739B1594A143A4C
:1015D00012680243574B143B1A6006E0554A143A0E
:1015E00012688243534B143B1A60704739B1514A19
:1015F000103A126802434F4B103B1A6006E04D4A06
:10160000103A126882434B4B103B1A60704739B155
:10161000484A1C3212680243464B1C331A6006E0EB
:10162000444A1C3212688243424B1C331A60704792
:1016300039B1404A2032126802433E4B20331A60CF
:1016400006E03C4A2032126882433A4B20331A604B
:10165000704739B1374A243212680243354B24337C
:101660001A6006E0334A243212688243314B243335
:101670001A60704739B12F4A2C32126802432D4B41
:101680002C331A6006E02B4A2C3212688243294B15
:101690002C331A60704739B1264A3032126802433F
:1016A000244B30331A6006E0224A303212688243FB
:1016B000204B30331A607047012808D11D493C3156
:1016C000096841F008011B4A3C32116007E01949E2
:1016D0003C31096821F00801164A3C32116070471C
:1016E00039B1144A273A12780243124B273B1A7039
:1016F00006E0104A273A127882430E4B273B1A70B5
:1017000070470C484030006840F080700949403113
:101710000860704701460020064A283A12680A40CD
:101720000AB1012000E00020704702492639087004
:10173000704700003438024010B50446FE48844229
:1017400008D101210846FFF751FF00210120FFF7D2
:101750004DFF9DE0B4F1804F08D101210846FFF70D
:1017600034FF00210120FFF730FF91E0F34884426D
:1017700008D101210220FFF728FF00210220FFF7F6
:1017800024FF85E0EE48844208D101210420FFF7C0
:101790001CFF00210420FFF718FF79E0E94884428C
:1017A00008D101210820FFF710FF00210820FFF7D2
:1017B0000CFF6DE0E448844208D101211020FFF7BE
:1017C00004FF00211020FFF700FF61E0DF488442A2
:1017D00008D101212020FFF7F8FE00212020FFF78B
:1017E000F4FE55E0DA48844208D101210220FFF7D7
:1017F000FDFE00210220FFF7F9FE49E0D5488442B2
:1018000009D101210804FFF7F1FE00214FF48030D7
:10181000FFF7ECFE3CE0D048844209D101214804A6
:10182000FFF7E4FE00214FF40030FFF7DFFE2FE06A
:10183000CA48844209D101218804FFF7D7FE00215C
:101840004FF48020FFF7D2FE22E0C548844208D141
:1018500001214020FFF7B9FE00214020FFF7B5FE2F
:1018600016E0C048844208D101218020FFF7ADFE78
:1018700000218020FFF7A9FE0AE0BB48844207D17F
:1018800001218015FFF7A1FE0021A015FFF79DFEA5
:1018900010BD00220288A84B98420ED0AC4B984253
:1018A0000BD0B0F1804F08D0A44B984205D0A44B88
:1018B000984202D0A34B984204D14FF68F731A403E
:1018C0004B881A43A04B984207D0A04B984204D0B3
:1018D0004FF6FF431A400B891A4302804B68C362DC
:1018E0000B880385944B984202D0994B984201D1C2
:1018F0008B7A03860123838270474FF0FF3141606A
:1019000000210180018141808172704701858282BE
:1019100070470A46002101884FF68F731940114322
:101920000180704741627047C16270470146486A52
:1019300070470146088D704721B1028842F00202CB
:10194000028004E002884FF6FD731A40028070475F
:1019500021B1028842F00402028004E002884FF6BE
:10196000FB731A400280704721B1028842F0800266
:10197000028004E002884FF67F731A4002807047AD
:1019800002884FF6F7731A40028002880A430280E9
:10199000704702884FF6FF431A40028002880A43CC
:1019A0000280704721B1028842F00102028004E007
:1019B00002884FF6FE731A400280704770B500240B
:1019C00000220023058C4FF6FE7635400584028CFC
:1019D0008388048B4FF68F752C40B51E2C400D88E4
:1019E0002C43751E2A408D892A434D882A43524D27
:1019F000A84202D0564DA84213D14FF6F7752A409F
:101A0000CD892A434FF6FB752A408D882A434FF62D
:101A1000FF652B404FF6FF552B400D8A2B434D8A17
:101A20002B43838004838D684563028470BD70B549
:101A3000002400220023058C4FF6EF763540058404
:101A4000028C8388048B48F6FF752C404FF6FF45C7
:101A50002C400D884FF6FF7606EA05252C434FF6FD
:101A6000DF752A408D8906EA05152A434D8806EA66
:101A700005152A43304DA84202D0354DA8421DD14C
:101A80004FF67F752A40CD894FF6FF7606EA051599
:101A90002A434FF6BF752A408D8806EA05152A436A
:101AA0004FF6FF352B404FF2FF752B400D8A06EAAB
:101AB00085052B434D8A06EA85052B4383800483E5
:101AC0008D688563028470BD70B5002400220023F8
:101AD000058C4FF6FF6635400584028C8388848B25
:101AE0004FF68F752C404FF6FC752C400D882C431B
:101AF0004FF6FF552A408D894FF6FF7606EA0525F9
:101B00002A434D8806EA05252A430B4DA84202D0F8
:101B10000F4DA84238D14FF2FF752A40CD894FF6BC
:101B2000FF7606EA05252A434FF6FF352A408D88C1
:101B300006EA05252A4319E00000014000040040A0
:101B400000080040000C004000100040001400405D
:101B500000040140004001400044014000480140B1
:101B600000180040001C0040002000404EF6FF75A9
:101B70002B404DF6FF752B400D8A06EA05152B43C9
:101B80004D8A06EA05152B43838084838D68C563DF
:101B9000028470BD70B5002200230024058C4EF62F
:101BA000FF7635400584038C8488828B48F6FF7568
:101BB0002A404FF6FF452A400D884FF6FF7606EA89
:101BC00005252A434DF6FF752B408D8906EA05351C
:101BD0002B434D8806EA05352B43FE4DA84202D023
:101BE000FD4DA84208D14BF6FF752C400D8A4FF6EB
:101BF000FF7606EA85152C43848082838D68056410
:101C0000038470BD002101804180818081608181D9
:101C1000C18101824182704770B5034600200024D3
:101C20001846183001258D40ACB21D8CA5431D848B
:101C300009B108290AD100EB610005684FF68F76DB
:101C4000354005600568154305600FE00D1FC5F3BD
:101C50004E052844056848F6FF763540056005685E
:101C60004FF6FF7606EA02263543056070BD4163F4
:101C7000704781637047C1637047016470470A46CB
:101C80000021018B4FF68F73194011430183704778
:101C90000A460021018B48F6FF7319404FF6FF7387
:101CA00003EA02231943018370470A460021818B0E
:101CB0004FF68F7319401143818370470A46002104
:101CC000818B48F6FF7319404FF6FF7303EA022336
:101CD0001943818370470A460021018B4FF6F77341
:101CE00019401143018370470A460021018B4FF2CE
:101CF000FF7319404FF6FF7303EA02231943018370
:101D000070470A460021818B4FF6F7731940114343
:101D1000818370470A460021818B4FF2FF7319407F
:101D20004FF6FF7303EA02231943818370470A4683
:101D30000021018B4FF6FB7319401143018370475B
:101D40000A460021018B4FF6FF3319404FF6FF730F
:101D500003EA02231943018370470A460021818B5D
:101D60004FF6FB7319401143818370470A460021E7
:101D7000818B4FF6FF3319404FF6FF7303EA0223BE
:101D80001943818370470A460021018B4FF67F7308
:101D900019401143018370470A460021018BC1F3AA
:101DA0000E014FF6FF7303EA0223194301837047C4
:101DB0000A460021818B4FF67F73194011438183BE
:101DC00070470A460021818BC1F30E014FF6FF7365
:101DD00003EA02231943818370470A460021018CDC
:101DE0004FF6FD7319401143018470470A460021E4
:101DF000018C4FF6F77319401143018470470A466E
:101E00000021018C4FF6DF7319404FF6FF7303EA90
:101E100002131943018470470A460021018C4FF6D2
:101E20007F7319404FF6FF7303EA021319430184CD
:101E300070470A460021018C4FF6FF5319404FF6B8
:101E4000FF7303EA02231943018470470A46002105
:101E5000018C4FF2FF7319404FF6FF7303EA022320
:101E60001943018470470A460021018C4DF6FF7327
:101E700019404FF6FF7303EA023319430184704798
:101E800030B5002301248C40A3B2048C9C4304840D
:101E9000048C02FA01F5ADB22C43048430BD30B598
:101EA000002304248C40A3B2048C9C430484048C3F
:101EB00002FA01F5ADB22C43048430BD828B4FF29F
:101EC000FF331A408283828B4FF6FF7303EA0123AC
:101ED0001A4382837047F0B50C4615460021002254
:101EE0000026078C4EF6FF7C07EA0C070784818BDF
:101EF000028C4FF6FF7707EA043640F6FF47394079
:101F00004FF6FF7707EA052739434FF6FF7707EAD1
:101F10000337394345F6FF773A4046F480573A4352
:101F200081830284F0BD828B4FF6F3731A40828363
:101F3000828B0A4382837047F0B50C461546002118
:101F400000220026078C4FF6FF6C07EA0C07078477
:101F5000818B028C4FF6FF7707EA04264FF60C7749
:101F600039404FF6FF7707EA03172F4339434FF203
:101F7000FF573A4046F480773A4381830284F0BDAC
:101F8000028B4FF2FF331A400283028B4FF6FF732E
:101F900003EA01231A4302837047F0B50C46154645
:101FA000002100220026078C4FF6EF7C07EA0C0781
:101FB0000784018B028C4FF6FF7707EA041640F680
:101FC000FF4739404FF6FF7707EA033739434FF6AB
:101FD000FF7703E0000001400004014007EA052705
:101FE00039434FF65F773A4046F010073A43018392
:101FF0000284F0BD028B4FF6F3731A400283028B0A
:102000000A4302837047F0B50C46154600210022B2
:10201000068C4FF6FE773E400684018B028C4FF60D
:102020000C7631407E1C06EA03162E4331434FF6F0
:10203000F576324044F00106324301830284F0BD5C
:1020400070B505460C46208850B92389A28861885E
:102050002846FFF7D8FFE1882846FFF7CBFF25E0A9
:10206000208804280AD12389A28861882846FFF79E
:1020700094FFE1882846FFF783FF17E020880828AF
:102080000AD12389A28861882846FFF755FFE18895
:102090002846FFF748FF09E02389A288618828467F
:1020A000FFF719FFE1882846FFF708FF70BD002100
:1020B00001804180012181800021C1800181704720
:1020C0002DE9F04105460C4600260127608808B935
:1020D000022600E00026A088012801D1022700E0A6
:1020E00001272088A0B92389A28861882846FFF7A4
:1020F0008AFFE1882846FFF77DFF23893A4631466B
:102100002846FFF74AFFE1882846FFF739FF13E02A
:102110002389A28861882846FFF73FFFE188284687
:10212000FFF72EFF23893A4631462846FFF76BFF1B
:10213000E1882846FFF75EFFBDE8F0810146486B65
:1021400070470146886B70470146C86B704701466F
:10215000086C70470A884B881A438B881A43CB88CF
:102160001A430B891A434B891A438B891A43A0F8E7
:10217000442070470021018041808180C18001811D
:1021800041818181704731B1B0F8442042F400426E
:10219000A0F8442005E0B0F84420C2F30E02A0F8F5
:1021A0004420704721B1828842F00402828004E01A
:1021B00082884FF6FB731A408280704721B1828873
:1021C00042F00102828004E082884FF6FE731A40DA
:1021D000828070471AB183890B43838102E083892F
:1021E0008B43838170478182704702460020138AA7
:1021F0000B400BB1012000E000207047CA4302826F
:10220000704730B50246002000230024158A05EAF5
:102210000103958905EA010413B10CB1012000E026
:10222000002030BDCA430282704741EA0203A0F891
:10223000483070471AB183890B43838102E0838958
:102240008B438381704721B1828842F008028280EB
:1022500004E082884FF6F7731A4082807047018944
:102260004FF6F8721140018170470A46002101893A
:102270004FF68F73194011430181704730B5044602
:102280000D4629462046FFF7F0FF208940F0070061
:10229000208130BD2DE9F04104460D4616461F460B
:1022A000602D06D13B46012231462046FFF775FEE0
:1022B00005E03B46012231462046FFF7A4FE2946B1
:1022C0002046FFF7D2FF208940F007002081BDE8BB
:1022D000F08130B50C4600210189C9B24FF6FF7577
:1022E00005EA0325154325432943018130BD2DE926
:1022F000F04105460E4617469846002443463A46A6
:1023000031462846FFF7E5FF2C894FF6F870044068
:1023100044F007044FF68F70044044F070042C81A1
:10232000BDE8F081F0B504460D4616461F463B4613
:10233000324629462046FFF7CCFF208940F48040F2
:102340002081F0BD82884FF68F731A408280828888
:102350000A438280704702894FF6F8731A4002815F
:1023600002890A430281704702894FF67F731A403F
:10237000028102890A4302817047F0B50C46154676
:102380001E460021002200230189028B038C4FF698
:10239000F877394021434FF6FC473A4040F20117A5
:1023A0003A434FF6DD773B404FF6FF7707EA0617D3
:1023B0002F433B43018102830384F0BD21B1828816
:1023C00042F08002828004E082884FF67F731A40D8
:1023D00082807047A0F850107047000010B5044686
:1023E000FA48844208D101211020FFF7FFF80021AC
:1023F0001020FFF7FBF857E0F548844209D101218E
:102400004804FFF7E2F800214FF40030FFF7DDF851
:102410004AE0F048844209D101218804FFF7D5F849
:1024200000214FF48020FFF7D0F83DE0EA488442D5
:1024300009D10121C804FFF7C8F800214FF400209A
:10244000FFF7C3F830E0E548844209D101210805CF
:10245000FFF7BBF800214FF48010FFF7B6F823E038
:10246000DF48844208D101212020FFF7BFF8002176
:102470002020FFF7BBF817E0DA48844209D1012198
:102480008807FFF7A2F800214FF08040FFF79DF882
:102490000AE0D548844207D101214005FFF795F8AD
:1024A00000216005FFF791F810BD2DE9FF470546B3
:1024B0000E460024A14600BFA046B08900B100BF6F
:1024C0002C8A24F44054F08804432C82AC8941F2D5
:1024D0000C608443B0883189084371890843044300
:1024E000AC81AC8A24F44074B0890443AC82684661
:1024F000FEF7FEFEB548854202D0B948854202D1BA
:10250000DDF80C9001E0DDF80890A88900F40040A7
:1025100040B109EBC90000EB091031684900B0FB7C
:10252000F1F707E009EBC90000EB091031688900F9
:10253000B0FBF1F76420B7FBF0F00401200964213F
:1025400001FB1078A88900F4004040B1322000EB74
:10255000C800B0FBF1F000F00700044308E03220AF
:1025600000EB08106421B0FBF1F000F00F00044311
:102570002C81BDE8FF874FF4165101600021818056
:10258000C18001810C21418100218181704710B5FA
:1025900002460020108A20F470600B884C88234388
:1025A0008C882343CC8823431843108210BD00211C
:1025B000018041808180C180704721B1828942F4CD
:1025C0000052828104E082894DF6FF731A408281B5
:1025D0007047028B02F47F420283028B0A4302831C
:1025E000704721B1828942F40042828103E08289EE
:1025F000C2F30E028281704721B1828A42F40062E6
:10260000828204E0828A4FF2FF731A40828270470E
:10261000C1F308028280704701468888C0F3080031
:102620007047028A4FF6F0731A400282028A0A4308
:102630000282704721B1828942F00202828104E065
:1026400082894FF6FD731A408281704782894FF26A
:10265000FF731A40828182890A4382817047028A0D
:102660004FF6DF731A400282028A0A4302827047E1
:1026700021B1028A42F48042028204E0028A4BF6CF
:10268000FF731A4002827047818941F00101818104
:10269000704721B1828A42F00802828204E0828A75
:1026A0004FF6F7731A4082827047028BD2B20283D0
:1026B000028B42EA01220283704721B1828A42F0F2
:1026C0002002828204E0828A4FF6DF731A408282FF
:1026D000704721B1828A42F01002828204E0828A2D
:1026E0004FF6EF731A4082827047828A4FF6FB736F
:1026F0001A408282828A0A438282704721B1828A8A
:1027000042F00202828204E0828A4FF6FD731A4090
:10271000828270471AB1838A0B43838202E0838AE4
:102720008B4383827047F0B50346002400260025C2
:10273000002040F66A17B94200D100BF1846C1F325
:10274000421401F01F06012707FA06F5012C01D1FA
:102750000C3004E0022C01D1103000E014301AB12A
:1027600007682F43076002E00768AF430760F0BDCA
:1027700002460020B1F5007F00D100BF13880B4056
:102780000BB1012000E00020704701F40072B2F5A7
:10279000007F00D100BFCA430280704770B5024677
:1027A000002400230025002040F66A16B14200D123
:1027B00000BFC1F3421501F01F03012606FA03F31F
:1027C000012D13D19689334017E00000001001401D
:1027D0000044004000480040004C004000500040D1
:1027E0000014014000780040007C0040022D02D11E
:1027F000168A334001E0968A33400C12012606FA0D
:1028000004F41688344013B10CB1012000E000201C
:1028100070BD10B50022002340F66A14A14200D119
:1028200000BF0A1201249440A3B2DC43048010BD0F
:1028300010B504466FF00400FEF7E6FAE11704EB6A
:102840005171C1F3C701394A11701046007800EB8D
:102850004001C1EBC0104FF6FF7101EAC0003449DE
:10286000088010BD0146314A12784A434FF0E023F8
:102870005A6100229A611A46126942F001021A61F5
:1028800000BF4FF0E022106900F001021AB100F41D
:102890008032002AF5D04FF0E022126922F00102C6
:1028A0004FF0E0231A6100229A6170470146204AE6
:1028B00012884A434FF0E0235A6100229A611A4677
:1028C000126942F001021A6100BF4FF0E022106964
:1028D00000F001021AB100F48032002AF5D04FF066
:1028E000E022126922F001024FF0E0231A61002277
:1028F0009A61704770B504464FF4077094FBF0F08E
:10290000C6B24FF4077094FBF0F100FB114085B2A2
:1029100005E04FF40770FFF7C9FF701EC6B2002E26
:10292000F7D115B12846FFF7C1FF70BD3400002074
:1029300036000020014600BF00207047014600BF5E
:102940000020704700BF4C4A128802F04002002A63
:10295000F9D0C2B2484B9A80704710B588B004468F
:1029600001210846FEF795FD01211020FEF7E9FD43
:10297000072209214148FEF776FB07220A213F483A
:10298000FEF771FB4FF4C060069002208DF81C002A
:102990008DF81D0000208DF81E0001208DF81F000D
:1029A00006A93648FEF7D4FA02940020ADF80C00D0
:1029B000ADF80E00ADF81000ADF814000C20ADF825
:1029C000120002A92C48FFF770FD01212A48FFF7E9
:1029D000F4FD012240F225512748FFF7A4FE2520EF
:1029E0008DF8040003208DF805008DF80600012005
:1029F0008DF8070001A8FEF7BAF908B010BD10B5B0
:102A000040F225511C48FFF7C9FE10B31A48FFF7E2
:102A100003FEC4B21A48008800F40040C8B9184840
:102A2000008800F4804060B10A2C03D000201449D3
:102A3000088020E01248008840F4004010490880D7
:102A400019E00D2C06D10E48008840F480400C4956
:102A5000088010E00A480088C0F30D0009490C54B2
:102A600007480088401C0649088008460088C72897
:102A700001DD0020088010BD001001400000024070
:102A80003C00002040020020704770B5064600F070
:102A900017F9056806F10B0020F00704B4429CBF4B
:102AA000002070BD2B466A68BAB11068A04210D3EE
:102AB00004F1080188423CBF5068586007D3516850
:102AC000101941601168091B016058601460101DE5
:102AD00070BD13465268002AE7D12146284600F00F
:102AE000F7F80028DED170BD70B50446051F00F070
:102AF000E7F80068002C14BF446870BD002C18BFB4
:102B0000AC423CBF20466468F8D301680A18AA4268
:102B100018BF456003D12A68054611440160286842
:102B20004119A1421CBF6C6070BD61686960216879
:102B30000844286070BD032A40F2308010F0030C76
:102B400000F0158011F8013BBCF1020F624498BF00
:102B500011F801CB00F8013B38BF11F8013BA2F19D
:102B6000040298BF00F801CB38BF00F8013B11F018
:102B7000030300F02580083AC0F0088051F8043BB8
:102B8000083A51F804CBA0E80810F5E7121D5CBF25
:102B900051F8043B40F8043BAFF30080D20724BF58
:102BA00011F8013B11F801CB48BF11F8012B24BFEC
:102BB00000F8013B00F801CB48BF00F8012B70473B
:102BC00010B5203AC0F00B80B1E81850203AA0E8C8
:102BD0001850B1E81850A0E81850BFF4F5AF5FEAFC
:102BE000027C24BFB1E81850A0E8185044BF18C9AF
:102BF00018C0BDE810405FEA827C24BF51F8043B56
:102C000040F8043B08BF7047D20728BF31F8023BA9
:102C100048BF11F8012B28BF20F8023B48BF00F83D
:102C2000012B70474FF000020429C0F0128010F011
:102C3000030C00F01B80CCF1040CBCF1020F18BF98
:102C400000F8012BA8BF20F8022BA1EB0C0100F02B
:102C50000DB85FEAC17C24BF00F8012B00F8012BFE
:102C600048BF00F8012B70474FF0000200B5134633
:102C700094469646203922BFA0E80C50A0E80C509C
:102C8000B1F12001BFF4F7AF090728BFA0E80C504D
:102C900048BF0CC05DF804EB890028BF40F8042B46
:102CA00008BF704748BF20F8022B11F0804F18BFB3
:102CB00000F8012B7047704770477047704700005D
:102CC00000487047100300207047704770477047F6
:102CD00038B504460A4600206946AFF30080002854
:102CE00008BF38BD02460099204600F03FF8012099
:102CF00038BD012000F054B8F8B5AFF300800546A8
:102D000000200C46102000BF0646A819A0420DD98D
:102D1000324669460020AFF30080070008BF00F08C
:102D20003FF80098A04218BF0546C419FFF7C8FF36
:102D300005600746F01D20F007004619284600F000
:102D40000AF8B44208BFF8BDA21B31463868BDE896
:102D5000F84000F00BB800210160C0E90110704795
:102D60001020704700487047080300200346406861
:102D70008C46002818BF88423CBF03464068F8D301
:102D800018681844884207D00CF1030020F00700AF
:102D9000001D411A521A0146081D0A60FFF7A4BE21
:102DA00010B500F037F8BDE8104000F02EB87546B9
:102DB000FFF7D8FFAE4605006946534620F00700EE
:102DC000854618B020B5FDF7BBFFBDE820404FF0A9
:102DD00000064FF000074FF000084FF0000B21F005
:102DE0000701AC46ACE8C009ACE8C009ACE8C009D2
:102DF000ACE8C0098D46704710B50446AFF30080BB
:102E00002046BDE81040FDF71EBA002801D0FFF7AC
:102E100091BD704710B5012805D0002103A000F036
:102E200021F8012010BD09A1F8E7000053494752DD
:102E3000544D454D3A204F7574206F66206865618A
:102E400070206D656D6F7279000000003A20486552
:102E50006170206D656D6F727920636F727275702D
:102E60007465640070B505460C460A2000E06D1CD0
:102E7000FFF764FD35B128780028F8D102E0641C22
:102E8000FFF75CFD14B120780028F8D1BDE8704050
:102E90000A20FFF753BD4FF04070E1EE100A704773
:102EA000C02E00080000002040000000E8010008DB
:102EB000002F00084000002028090000040200083C
:102EC0000000000000000000000000000000000002
:102ED0000095BA0A0000000000000000010203048F
:102EE00006070809000000000102030401020304B0
:102EF00006070809000000000000000000000000B4
:04000005080001AD41
:00000001FF
